{
  "transactions": [
    {
      "hash": "0xa2b4b54b4318a0e935de0e3d50e7f352aae9845fc94a17cd195af3980486c035",
      "transactionType": "CALL",
      "contractName": null,
      "contractAddress": "0xf24dbc76bcda7188734aa472932199c5bd07c640",
      "function": "verifyTrade(bytes32,address)",
      "arguments": [
        "0x4cf48c32703c5ea133fafb260b3dfffdf80b608eb0f5cd2157e96672c0248533",
        "0xf83fC198d93aA442fBa68A4dB971A43a33F3607F"
      ],
      "transaction": {
        "from": "0xf83fc198d93aa442fba68a4db971a43a33f3607f",
        "to": "0xf24dbc76bcda7188734aa472932199c5bd07c640",
        "gas": "0x6c0d7",
        "value": "0x0",
        "input": "0xe0d6aa384cf48c32703c5ea133fafb260b3dfffdf80b608eb0f5cd2157e96672c0248533000000000000000000000000f83fc198d93aa442fba68a4db971a43a33f3607f",
        "nonce": "0xc",
        "chainId": "0x13882"
      },
      "additionalContracts": [],
      "isFixedGasLimit": false
    },
    {
      "hash": "0x653ccd038dd979f7668ee9733e48afb382ea13b490685b1def77b285fe9f1cca",
      "transactionType": "CALL",
      "contractName": null,
      "contractAddress": "0xf24dbc76bcda7188734aa472932199c5bd07c640",
      "function": "submitMerkleRoot(bytes32,uint256,string)",
      "arguments": [
        "0xf5355dda1dc1ee56d76ad8b249fef2bf60ce96c292a0234cfa4966eb736e3221",
        "3",
        "2026-02-23-batch-001"
      ],
      "transaction": {
        "from": "0xf83fc198d93aa442fba68a4db971a43a33f3607f",
        "to": "0xf24dbc76bcda7188734aa472932199c5bd07c640",
        "gas": "0x548a7",
        "value": "0x0",
        "input": "0x1e5cc5f1f5355dda1dc1ee56d76ad8b249fef2bf60ce96c292a0234cfa4966eb736e3221000000000000000000000000000000000000000000000000000000000000000300000000000000000000000000000000000000000000000000000000000000600000000000000000000000000000000000000000000000000000000000000014323032362d30322d32332d62617463682d303031000000000000000000000000",
        "nonce": "0xd",
        "chainId": "0x13882"
      },
      "additionalContracts": [],
      "isFixedGasLimit": false
    }
  ],
  "receipts": [
    {
      "status": "0x1",
      "cumulativeGasUsed": "0x4e3a7",
      "logs": [
        {
          "address": "0xf24dbc76bcda7188734aa472932199c5bd07c640",
          "topics": [
            "0x5c987331224effc0e6fe8ddfb21de46ce54c656bfe6ed3c0e69a7a9e4895b1a4",
            "0x4cf48c32703c5ea133fafb260b3dfffdf80b608eb0f5cd2157e96672c0248533",
            "0x000000000000000000000000f83fc198d93aa442fba68a4db971a43a33f3607f"
          ],
          "data": "0x00000000000000000000000000000000000000000000000000000000699f2dd3",
          "blockHash": "0xb000af1f1fe791c189bad430144f0397ddb345d636379fdc45627ec53b273fac",
          "blockNumber": "0x20dc210",
          "blockTimestamp": "0x699f2dd3",
          "transactionHash": "0xa2b4b54b4318a0e935de0e3d50e7f352aae9845fc94a17cd195af3980486c035",
          "transactionIndex": "0x0",
          "logIndex": "0x0",
          "removed": false
        },
        {
          "address": "0x0000000000000000000000000000000000001010",
          "topics": [
            "0x4dfe1bbbcf077ddc3e01291eea2d5c70c2b422b415d95645b9adcfd678cb1d63",
            "0x0000000000000000000000000000000000000000000000000000000000001010",
            "0x000000000000000000000000f83fc198d93aa442fba68a4db971a43a33f3607f",
            "0x0000000000000000000000007ee41d8a25641000661b1ef5e6ae8a00400466b0"
          ],
          "data": "0x000000000000000000000000000000000000000000000000002226b0ccc9340000000000000000000000000000000000000000000000000001fa46f454d15eb90000000000000000000000000000000000000000000025dcac1107beb11a9fa800000000000000000000000000000000000000000000000001d8204388082ab90000000000000000000000000000000000000000000025dcac332e6f7de3d3a8",
          "blockHash": "0xb000af1f1fe791c189bad430144f0397ddb345d636379fdc45627ec53b273fac",
          "blockNumber": "0x20dc210",
          "blockTimestamp": "0x699f2dd3",
          "transactionHash": "0xa2b4b54b4318a0e935de0e3d50e7f352aae9845fc94a17cd195af3980486c035",
          "transactionIndex": "0x0",
          "logIndex": "0x1",
          "removed": false
        }
      ],
      "logsBloom": "0x00000004000000000000000000000000002000000000000000000000000000000000000000000000000000000000000000008000000000000000000000000000000000000000000800020000000000800000000000000000010100000000000000000000000000000000000000000000000000400000000080000000000000000000000000000000130000000400000000000000000000000000000000000000200000000000000000000000000000000000000000000000000000000000004000000020200000000001000000000000000000400000000000100000400000000000000004000000000000000000000000000000000000000000000000100000",
      "type": "0x2",
      "transactionHash": "0xa2b4b54b4318a0e935de0e3d50e7f352aae9845fc94a17cd195af3980486c035",
      "transactionIndex": "0x0",
      "blockHash": "0xb000af1f1fe791c189bad430144f0397ddb345d636379fdc45627ec53b273fac",
      "blockNumber": "0x20dc210",
      "gasUsed": "0x4e3a7",
      "effectiveGasPrice": "0x6fc23ac3f",
      "from": "0xf83fc198d93aa442fba68a4db971a43a33f3607f",
      "to": "0xf24dbc76bcda7188734aa472932199c5bd07c640",
      "contractAddress": null
    },
    {
      "status": "0x1",
      "cumulativeGasUsed": "0x8b6f4",
      "logs": [
        {
          "address": "0xf24dbc76bcda7188734aa472932199c5bd07c640",
          "topics": [
            "0x608a838c0459519c7d15fc222cd914844729adab4f78fc96ccaa069568299ba0",
            "0xf5355dda1dc1ee56d76ad8b249fef2bf60ce96c292a0234cfa4966eb736e3221",
            "0x000000000000000000000000f83fc198d93aa442fba68a4db971a43a33f3607f"
          ],
          "data": "0x0000000000000000000000000000000000000000000000000000000000000003000000000000000000000000000000000000000000000000000000000000006000000000000000000000000000000000000000000000000000000000699f2dd30000000000000000000000000000000000000000000000000000000000000014323032362d30322d32332d62617463682d303031000000000000000000000000",
          "blockHash": "0xb000af1f1fe791c189bad430144f0397ddb345d636379fdc45627ec53b273fac",
          "blockNumber": "0x20dc210",
          "blockTimestamp": "0x699f2dd3",
          "transactionHash": "0x653ccd038dd979f7668ee9733e48afb382ea13b490685b1def77b285fe9f1cca",
          "transactionIndex": "0x1",
          "logIndex": "0x2",
          "removed": false
        },
        {
          "address": "0x0000000000000000000000000000000000001010",
          "topics": [
            "0x4dfe1bbbcf077ddc3e01291eea2d5c70c2b422b415d95645b9adcfd678cb1d63",
            "0x0000000000000000000000000000000000000000000000000000000000001010",
            "0x000000000000000000000000f83fc198d93aa442fba68a4db971a43a33f3607f",
            "0x0000000000000000000000007ee41d8a25641000661b1ef5e6ae8a00400466b0"
          ],
          "data": "0x000000000000000000000000000000000000000000000000001ab856417ebc0000000000000000000000000000000000000000000000000001d8204386d424a00000000000000000000000000000000000000000000025dcac332e6f7de3d3a800000000000000000000000000000000000000000000000001bd67ed455568a00000000000000000000000000000000000000000000025dcac4de6c5bf628fa8",
          "blockHash": "0xb000af1f1fe791c189bad430144f0397ddb345d636379fdc45627ec53b273fac",
          "blockNumber": "0x20dc210",
          "blockTimestamp": "0x699f2dd3",
          "transactionHash": "0x653ccd038dd979f7668ee9733e48afb382ea13b490685b1def77b285fe9f1cca",
          "transactionIndex": "0x1",
          "logIndex": "0x3",
          "removed": false
        }
      ],
      "logsBloom": "0x00000000000000000000000000000000002000000000000000000000000000000000000000000000000000000000000400008000000000000000000000000000000000000000000800020000000000800000000000000000000100000000000000000000000000000000400000000000000000400000000080004000000000000008000080000000130000000400000000000000000000000000000000000000200000000000000000000000000000000000000000000000000000000000004000000000000000000401000000000000000000400000000000100000000000000000000000000000000000000000000000000000000000000000000000100000",
      "type": "0x2",
      "transactionHash": "0x653ccd038dd979f7668ee9733e48afb382ea13b490685b1def77b285fe9f1cca",
      "transactionIndex": "0x1",
      "blockHash": "0xb000af1f1fe791c189bad430144f0397ddb345d636379fdc45627ec53b273fac",
      "blockNumber": "0x20dc210",
      "gasUsed": "0x3d34d",
      "effectiveGasPrice": "0x6fc23ac3f",
      "from": "0xf83fc198d93aa442fba68a4db971a43a33f3607f",
      "to": "0xf24dbc76bcda7188734aa472932199c5bd07c640",
      "contractAddress": null
    }
  ],
  "libraries": [],
  "pending": [],
  "returns": {},
  "timestamp": 1772039636778,
  "chain": 80002,
  "commit": "a6f6f5c"
}